{
  "contractName": "VotingToken",
  "abi": [
    {
      "inputs": [],
      "stateMutability": "nonpayable",
      "type": "constructor"
    },
    {
      "inputs": [
        {
          "internalType": "address",
          "name": "spender",
          "type": "address"
        },
        {
          "internalType": "uint256",
          "name": "allowance",
          "type": "uint256"
        },
        {
          "internalType": "uint256",
          "name": "needed",
          "type": "uint256"
        }
      ],
      "name": "ERC20InsufficientAllowance",
      "type": "error"
    },
    {
      "inputs": [
        {
          "internalType": "address",
          "name": "sender",
          "type": "address"
        },
        {
          "internalType": "uint256",
          "name": "balance",
          "type": "uint256"
        },
        {
          "internalType": "uint256",
          "name": "needed",
          "type": "uint256"
        }
      ],
      "name": "ERC20InsufficientBalance",
      "type": "error"
    },
    {
      "inputs": [
        {
          "internalType": "address",
          "name": "approver",
          "type": "address"
        }
      ],
      "name": "ERC20InvalidApprover",
      "type": "error"
    },
    {
      "inputs": [
        {
          "internalType": "address",
          "name": "receiver",
          "type": "address"
        }
      ],
      "name": "ERC20InvalidReceiver",
      "type": "error"
    },
    {
      "inputs": [
        {
          "internalType": "address",
          "name": "sender",
          "type": "address"
        }
      ],
      "name": "ERC20InvalidSender",
      "type": "error"
    },
    {
      "inputs": [
        {
          "internalType": "address",
          "name": "spender",
          "type": "address"
        }
      ],
      "name": "ERC20InvalidSpender",
      "type": "error"
    },
    {
      "anonymous": false,
      "inputs": [
        {
          "indexed": true,
          "internalType": "address",
          "name": "owner",
          "type": "address"
        },
        {
          "indexed": true,
          "internalType": "address",
          "name": "spender",
          "type": "address"
        },
        {
          "indexed": false,
          "internalType": "uint256",
          "name": "value",
          "type": "uint256"
        }
      ],
      "name": "Approval",
      "type": "event"
    },
    {
      "anonymous": false,
      "inputs": [
        {
          "indexed": true,
          "internalType": "address",
          "name": "from",
          "type": "address"
        },
        {
          "indexed": true,
          "internalType": "address",
          "name": "to",
          "type": "address"
        },
        {
          "indexed": false,
          "internalType": "uint256",
          "name": "value",
          "type": "uint256"
        }
      ],
      "name": "Transfer",
      "type": "event"
    },
    {
      "inputs": [
        {
          "internalType": "address",
          "name": "owner",
          "type": "address"
        },
        {
          "internalType": "address",
          "name": "spender",
          "type": "address"
        }
      ],
      "name": "allowance",
      "outputs": [
        {
          "internalType": "uint256",
          "name": "",
          "type": "uint256"
        }
      ],
      "stateMutability": "view",
      "type": "function"
    },
    {
      "inputs": [
        {
          "internalType": "address",
          "name": "spender",
          "type": "address"
        },
        {
          "internalType": "uint256",
          "name": "value",
          "type": "uint256"
        }
      ],
      "name": "approve",
      "outputs": [
        {
          "internalType": "bool",
          "name": "",
          "type": "bool"
        }
      ],
      "stateMutability": "nonpayable",
      "type": "function"
    },
    {
      "inputs": [
        {
          "internalType": "address",
          "name": "account",
          "type": "address"
        }
      ],
      "name": "balanceOf",
      "outputs": [
        {
          "internalType": "uint256",
          "name": "",
          "type": "uint256"
        }
      ],
      "stateMutability": "view",
      "type": "function"
    },
    {
      "inputs": [
        {
          "internalType": "uint256",
          "name": "value",
          "type": "uint256"
        }
      ],
      "name": "burn",
      "outputs": [],
      "stateMutability": "nonpayable",
      "type": "function"
    },
    {
      "inputs": [
        {
          "internalType": "address",
          "name": "account",
          "type": "address"
        },
        {
          "internalType": "uint256",
          "name": "value",
          "type": "uint256"
        }
      ],
      "name": "burnFrom",
      "outputs": [],
      "stateMutability": "nonpayable",
      "type": "function"
    },
    {
      "inputs": [
        {
          "internalType": "uint256",
          "name": "",
          "type": "uint256"
        }
      ],
      "name": "candidates",
      "outputs": [
        {
          "internalType": "uint256",
          "name": "id",
          "type": "uint256"
        },
        {
          "internalType": "string",
          "name": "name",
          "type": "string"
        },
        {
          "internalType": "uint256",
          "name": "voteCount",
          "type": "uint256"
        }
      ],
      "stateMutability": "view",
      "type": "function"
    },
    {
      "inputs": [],
      "name": "candidatesCount",
      "outputs": [
        {
          "internalType": "uint256",
          "name": "",
          "type": "uint256"
        }
      ],
      "stateMutability": "view",
      "type": "function"
    },
    {
      "inputs": [],
      "name": "decimals",
      "outputs": [
        {
          "internalType": "uint8",
          "name": "",
          "type": "uint8"
        }
      ],
      "stateMutability": "view",
      "type": "function"
    },
    {
      "inputs": [],
      "name": "name",
      "outputs": [
        {
          "internalType": "string",
          "name": "",
          "type": "string"
        }
      ],
      "stateMutability": "view",
      "type": "function"
    },
    {
      "inputs": [],
      "name": "symbol",
      "outputs": [
        {
          "internalType": "string",
          "name": "",
          "type": "string"
        }
      ],
      "stateMutability": "view",
      "type": "function"
    },
    {
      "inputs": [],
      "name": "totalSupply",
      "outputs": [
        {
          "internalType": "uint256",
          "name": "",
          "type": "uint256"
        }
      ],
      "stateMutability": "view",
      "type": "function"
    },
    {
      "inputs": [
        {
          "internalType": "address",
          "name": "to",
          "type": "address"
        },
        {
          "internalType": "uint256",
          "name": "value",
          "type": "uint256"
        }
      ],
      "name": "transfer",
      "outputs": [
        {
          "internalType": "bool",
          "name": "",
          "type": "bool"
        }
      ],
      "stateMutability": "nonpayable",
      "type": "function"
    },
    {
      "inputs": [
        {
          "internalType": "address",
          "name": "from",
          "type": "address"
        },
        {
          "internalType": "address",
          "name": "to",
          "type": "address"
        },
        {
          "internalType": "uint256",
          "name": "value",
          "type": "uint256"
        }
      ],
      "name": "transferFrom",
      "outputs": [
        {
          "internalType": "bool",
          "name": "",
          "type": "bool"
        }
      ],
      "stateMutability": "nonpayable",
      "type": "function"
    },
    {
      "inputs": [
        {
          "internalType": "address",
          "name": "",
          "type": "address"
        }
      ],
      "name": "voters",
      "outputs": [
        {
          "internalType": "bool",
          "name": "",
          "type": "bool"
        }
      ],
      "stateMutability": "view",
      "type": "function"
    },
    {
      "inputs": [
        {
          "internalType": "uint256",
          "name": "candidateId",
          "type": "uint256"
        }
      ],
      "name": "vote",
      "outputs": [],
      "stateMutability": "nonpayable",
      "type": "function"
    },
    {
      "inputs": [
        {
          "internalType": "uint256",
          "name": "candidateId",
          "type": "uint256"
        }
      ],
      "name": "getVotes",
      "outputs": [
        {
          "internalType": "uint256",
          "name": "",
          "type": "uint256"
        }
      ],
      "stateMutability": "view",
      "type": "function"
    },
    {
      "inputs": [],
      "name": "getWinner",
      "outputs": [
        {
          "internalType": "uint256",
          "name": "",
          "type": "uint256"
        }
      ],
      "stateMutability": "view",
      "type": "function"
    }
  ],
  "bytecode": "0x608060405234801562000010575f80fd5b506040518060400160405280600b81526020017f566f74696e67546f6b656e0000000000000000000000000000000000000000008152506040518060400160405280600381526020017f56544b000000000000000000000000000000000000000000000000000000000081525081600390816200008e919062000707565b508060049081620000a0919062000707565b505050620000e233620000b86200017460201b60201c565b600a620000c6919062000974565b620f4240620000d69190620009c4565b6200017c60201b60201c565b620001286040518060400160405280600b81526020017f43616e64696461746520310000000000000000000000000000000000000000008152506200020660201b60201c565b6200016e6040518060400160405280600b81526020017f43616e64696461746520320000000000000000000000000000000000000000008152506200020660201b60201c565b62000b59565b5f6012905090565b5f73ffffffffffffffffffffffffffffffffffffffff168273ffffffffffffffffffffffffffffffffffffffff1603620001ef575f6040517fec442f05000000000000000000000000000000000000000000000000000000008152600401620001e6919062000a51565b60405180910390fd5b620002025f83836200027f60201b60201c565b5050565b60075f8154809291906200021a9062000a6c565b9190505550604051806060016040528060075481526020018281526020015f81525060065f60075481526020019081526020015f205f820151815f015560208201518160010190816200026e919062000707565b506040820151816002015590505050565b5f73ffffffffffffffffffffffffffffffffffffffff168373ffffffffffffffffffffffffffffffffffffffff1603620002d3578060025f828254620002c6919062000ab8565b92505081905550620003a4565b5f805f8573ffffffffffffffffffffffffffffffffffffffff1673ffffffffffffffffffffffffffffffffffffffff1681526020019081526020015f20549050818110156200035f578381836040517fe450d38c000000000000000000000000000000000000000000000000000000008152600401620003569392919062000b03565b60405180910390fd5b8181035f808673ffffffffffffffffffffffffffffffffffffffff1673ffffffffffffffffffffffffffffffffffffffff1681526020019081526020015f2081905550505b5f73ffffffffffffffffffffffffffffffffffffffff168273ffffffffffffffffffffffffffffffffffffffff1603620003ed578060025f828254039250508190555062000437565b805f808473ffffffffffffffffffffffffffffffffffffffff1673ffffffffffffffffffffffffffffffffffffffff1681526020019081526020015f205f82825401925050819055505b8173ffffffffffffffffffffffffffffffffffffffff168373ffffffffffffffffffffffffffffffffffffffff167fddf252ad1be2c89b69c2b068fc378daa952ba7f163c4a11628f55a4df523b3ef8360405162000496919062000b3e565b60405180910390a3505050565b5f81519050919050565b7f4e487b71000000000000000000000000000000000000000000000000000000005f52604160045260245ffd5b7f4e487b71000000000000000000000000000000000000000000000000000000005f52602260045260245ffd5b5f60028204905060018216806200051f57607f821691505b602082108103620005355762000534620004da565b5b50919050565b5f819050815f5260205f209050919050565b5f6020601f8301049050919050565b5f82821b905092915050565b5f60088302620005997fffffffffffffffffffffffffffffffffffffffffffffffffffffffffffffffff826200055c565b620005a586836200055c565b95508019841693508086168417925050509392505050565b5f819050919050565b5f819050919050565b5f620005ef620005e9620005e384620005bd565b620005c6565b620005bd565b9050919050565b5f819050919050565b6200060a83620005cf565b620006226200061982620005f6565b84845462000568565b825550505050565b5f90565b620006386200062a565b62000645818484620005ff565b505050565b5b818110156200066c57620006605f826200062e565b6001810190506200064b565b5050565b601f821115620006bb5762000685816200053b565b62000690846200054d565b81016020851015620006a0578190505b620006b8620006af856200054d565b8301826200064a565b50505b505050565b5f82821c905092915050565b5f620006dd5f1984600802620006c0565b1980831691505092915050565b5f620006f78383620006cc565b9150826002028217905092915050565b6200071282620004a3565b67ffffffffffffffff8111156200072e576200072d620004ad565b5b6200073a825462000507565b6200074782828562000670565b5f60209050601f8311600181146200077d575f841562000768578287015190505b620007748582620006ea565b865550620007e3565b601f1984166200078d866200053b565b5f5b82811015620007b6578489015182556001820191506020850194506020810190506200078f565b86831015620007d65784890151620007d2601f891682620006cc565b8355505b6001600288020188555050505b505050505050565b7f4e487b71000000000000000000000000000000000000000000000000000000005f52601160045260245ffd5b5f8160011c9050919050565b5f808291508390505b600185111562000875578086048111156200084d576200084c620007eb565b5b60018516156200085d5780820291505b80810290506200086d8562000818565b94506200082d565b94509492505050565b5f826200088f576001905062000961565b816200089e575f905062000961565b8160018114620008b75760028114620008c257620008f8565b600191505062000961565b60ff841115620008d757620008d6620007eb565b5b8360020a915084821115620008f157620008f0620007eb565b5b5062000961565b5060208310610133831016604e8410600b8410161715620009325782820a9050838111156200092c576200092b620007eb565b5b62000961565b62000941848484600162000824565b925090508184048111156200095b576200095a620007eb565b5b81810290505b9392505050565b5f60ff82169050919050565b5f6200098082620005bd565b91506200098d8362000968565b9250620009bc7fffffffffffffffffffffffffffffffffffffffffffffffffffffffffffffffff84846200087e565b905092915050565b5f620009d082620005bd565b9150620009dd83620005bd565b9250828202620009ed81620005bd565b9150828204841483151762000a075762000a06620007eb565b5b5092915050565b5f73ffffffffffffffffffffffffffffffffffffffff82169050919050565b5f62000a398262000a0e565b9050919050565b62000a4b8162000a2d565b82525050565b5f60208201905062000a665f83018462000a40565b92915050565b5f62000a7882620005bd565b91507fffffffffffffffffffffffffffffffffffffffffffffffffffffffffffffffff820362000aad5762000aac620007eb565b5b600182019050919050565b5f62000ac482620005bd565b915062000ad183620005bd565b925082820190508082111562000aec5762000aeb620007eb565b5b92915050565b62000afd81620005bd565b82525050565b5f60608201905062000b185f83018662000a40565b62000b27602083018562000af2565b62000b36604083018462000af2565b949350505050565b5f60208201905062000b535f83018462000af2565b92915050565b6116a98062000b675f395ff3fe608060405234801561000f575f80fd5b5060043610610109575f3560e01c806342966c68116100a057806395d89b411161006f57806395d89b41146102b9578063a3ec138d146102d7578063a9059cbb14610307578063dd62ed3e14610337578063ff9810991461036757610109565b806342966c681461023357806370a082311461024f57806379cc67901461027f5780638e7ea5b21461029b57610109565b806323b872dd116100dc57806323b872dd146101955780632d35a8a2146101c5578063313ce567146101e35780633477ee2e1461020157610109565b80630121b93f1461010d57806306fdde0314610129578063095ea7b31461014757806318160ddd14610177575b5f80fd5b61012760048036038101906101229190610f97565b610397565b005b61013161051c565b60405161013e919061104c565b60405180910390f35b610161600480360381019061015c91906110c6565b6105ac565b60405161016e919061111e565b60405180910390f35b61017f6105ce565b60405161018c9190611146565b60405180910390f35b6101af60048036038101906101aa919061115f565b6105d7565b6040516101bc919061111e565b60405180910390f35b6101cd610605565b6040516101da9190611146565b60405180910390f35b6101eb61060b565b6040516101f891906111ca565b60405180910390f35b61021b60048036038101906102169190610f97565b610613565b60405161022a939291906111e3565b60405180910390f35b61024d60048036038101906102489190610f97565b6106bf565b005b6102696004803603810190610264919061121f565b6106d3565b6040516102769190611146565b60405180910390f35b610299600480360381019061029491906110c6565b610718565b005b6102a3610738565b6040516102b09190611146565b60405180910390f35b6102c16107a0565b6040516102ce919061104c565b60405180910390f35b6102f160048036038101906102ec919061121f565b610830565b6040516102fe919061111e565b60405180910390f35b610321600480360381019061031c91906110c6565b61084d565b60405161032e919061111e565b60405180910390f35b610351600480360381019061034c919061124a565b61086f565b60405161035e9190611146565b60405180910390f35b610381600480360381019061037c9190610f97565b6108f1565b60405161038e9190611146565b60405180910390f35b60055f3373ffffffffffffffffffffffffffffffffffffffff1673ffffffffffffffffffffffffffffffffffffffff1681526020019081526020015f205f9054906101000a900460ff1615610421576040517f08c379a0000000000000000000000000000000000000000000000000000000008152600401610418906112d2565b60405180910390fd5b5f8111801561043257506007548111155b610471576040517f08c379a00000000000000000000000000000000000000000000000000000000081526004016104689061133a565b60405180910390fd5b600160055f3373ffffffffffffffffffffffffffffffffffffffff1673ffffffffffffffffffffffffffffffffffffffff1681526020019081526020015f205f6101000a81548160ff02191690831515021790555060065f8281526020019081526020015f206002015f8154809291906104ea90611385565b919050555061051933306104fc61060b565b600a61050891906114fb565b60016105149190611545565b61095e565b50565b60606003805461052b906115b3565b80601f0160208091040260200160405190810160405280929190818152602001828054610557906115b3565b80156105a25780601f10610579576101008083540402835291602001916105a2565b820191905f5260205f20905b81548152906001019060200180831161058557829003601f168201915b5050505050905090565b5f806105b6610a4e565b90506105c3818585610a55565b600191505092915050565b5f600254905090565b5f806105e1610a4e565b90506105ee858285610a67565b6105f985858561095e565b60019150509392505050565b60075481565b5f6012905090565b6006602052805f5260405f205f91509050805f015490806001018054610638906115b3565b80601f0160208091040260200160405190810160405280929190818152602001828054610664906115b3565b80156106af5780601f10610686576101008083540402835291602001916106af565b820191905f5260205f20905b81548152906001019060200180831161069257829003601f168201915b5050505050908060020154905083565b6106d06106ca610a4e565b82610af9565b50565b5f805f8373ffffffffffffffffffffffffffffffffffffffff1673ffffffffffffffffffffffffffffffffffffffff1681526020019081526020015f20549050919050565b61072a82610724610a4e565b83610a67565b6107348282610af9565b5050565b5f805f90505f80600190505b6007548111610797578260065f8381526020019081526020015f206002015411156107845760065f8281526020019081526020015f206002015492508091505b808061078f90611385565b915050610744565b50809250505090565b6060600480546107af906115b3565b80601f01602080910402602001604051908101604052809291908181526020018280546107db906115b3565b80156108265780601f106107fd57610100808354040283529160200191610826565b820191905f5260205f20905b81548152906001019060200180831161080957829003601f168201915b5050505050905090565b6005602052805f5260405f205f915054906101000a900460ff1681565b5f80610857610a4e565b905061086481858561095e565b600191505092915050565b5f60015f8473ffffffffffffffffffffffffffffffffffffffff1673ffffffffffffffffffffffffffffffffffffffff1681526020019081526020015f205f8373ffffffffffffffffffffffffffffffffffffffff1673ffffffffffffffffffffffffffffffffffffffff1681526020019081526020015f2054905092915050565b5f808211801561090357506007548211155b610942576040517f08c379a00000000000000000000000000000000000000000000000000000000081526004016109399061133a565b60405180910390fd5b60065f8381526020019081526020015f20600201549050919050565b5f73ffffffffffffffffffffffffffffffffffffffff168373ffffffffffffffffffffffffffffffffffffffff16036109ce575f6040517f96c6fd1e0000000000000000000000000000000000000000000000000000000081526004016109c591906115f2565b60405180910390fd5b5f73ffffffffffffffffffffffffffffffffffffffff168273ffffffffffffffffffffffffffffffffffffffff1603610a3e575f6040517fec442f05000000000000000000000000000000000000000000000000000000008152600401610a3591906115f2565b60405180910390fd5b610a49838383610b78565b505050565b5f33905090565b610a628383836001610d91565b505050565b5f610a72848461086f565b90507fffffffffffffffffffffffffffffffffffffffffffffffffffffffffffffffff8114610af35781811015610ae4578281836040517ffb8f41b2000000000000000000000000000000000000000000000000000000008152600401610adb9392919061160b565b60405180910390fd5b610af284848484035f610d91565b5b50505050565b5f73ffffffffffffffffffffffffffffffffffffffff168273ffffffffffffffffffffffffffffffffffffffff1603610b69575f6040517f96c6fd1e000000000000000000000000000000000000000000000000000000008152600401610b6091906115f2565b60405180910390fd5b610b74825f83610b78565b5050565b5f73ffffffffffffffffffffffffffffffffffffffff168373ffffffffffffffffffffffffffffffffffffffff1603610bc8578060025f828254610bbc9190611640565b92505081905550610c96565b5f805f8573ffffffffffffffffffffffffffffffffffffffff1673ffffffffffffffffffffffffffffffffffffffff1681526020019081526020015f2054905081811015610c51578381836040517fe450d38c000000000000000000000000000000000000000000000000000000008152600401610c489392919061160b565b60405180910390fd5b8181035f808673ffffffffffffffffffffffffffffffffffffffff1673ffffffffffffffffffffffffffffffffffffffff1681526020019081526020015f2081905550505b5f73ffffffffffffffffffffffffffffffffffffffff168273ffffffffffffffffffffffffffffffffffffffff1603610cdd578060025f8282540392505081905550610d27565b805f808473ffffffffffffffffffffffffffffffffffffffff1673ffffffffffffffffffffffffffffffffffffffff1681526020019081526020015f205f82825401925050819055505b8173ffffffffffffffffffffffffffffffffffffffff168373ffffffffffffffffffffffffffffffffffffffff167fddf252ad1be2c89b69c2b068fc378daa952ba7f163c4a11628f55a4df523b3ef83604051610d849190611146565b60405180910390a3505050565b5f73ffffffffffffffffffffffffffffffffffffffff168473ffffffffffffffffffffffffffffffffffffffff1603610e01575f6040517fe602df05000000000000000000000000000000000000000000000000000000008152600401610df891906115f2565b60405180910390fd5b5f73ffffffffffffffffffffffffffffffffffffffff168373ffffffffffffffffffffffffffffffffffffffff1603610e71575f6040517f94280d62000000000000000000000000000000000000000000000000000000008152600401610e6891906115f2565b60405180910390fd5b8160015f8673ffffffffffffffffffffffffffffffffffffffff1673ffffffffffffffffffffffffffffffffffffffff1681526020019081526020015f205f8573ffffffffffffffffffffffffffffffffffffffff1673ffffffffffffffffffffffffffffffffffffffff1681526020019081526020015f20819055508015610f5a578273ffffffffffffffffffffffffffffffffffffffff168473ffffffffffffffffffffffffffffffffffffffff167f8c5be1e5ebec7d5bd14f71427d1e84f3dd0314c0f7b2291e5b200ac8c7c3b92584604051610f519190611146565b60405180910390a35b50505050565b5f80fd5b5f819050919050565b610f7681610f64565b8114610f80575f80fd5b50565b5f81359050610f9181610f6d565b92915050565b5f60208284031215610fac57610fab610f60565b5b5f610fb984828501610f83565b91505092915050565b5f81519050919050565b5f82825260208201905092915050565b5f5b83811015610ff9578082015181840152602081019050610fde565b5f8484015250505050565b5f601f19601f8301169050919050565b5f61101e82610fc2565b6110288185610fcc565b9350611038818560208601610fdc565b61104181611004565b840191505092915050565b5f6020820190508181035f8301526110648184611014565b905092915050565b5f73ffffffffffffffffffffffffffffffffffffffff82169050919050565b5f6110958261106c565b9050919050565b6110a58161108b565b81146110af575f80fd5b50565b5f813590506110c08161109c565b92915050565b5f80604083850312156110dc576110db610f60565b5b5f6110e9858286016110b2565b92505060206110fa85828601610f83565b9150509250929050565b5f8115159050919050565b61111881611104565b82525050565b5f6020820190506111315f83018461110f565b92915050565b61114081610f64565b82525050565b5f6020820190506111595f830184611137565b92915050565b5f805f6060848603121561117657611175610f60565b5b5f611183868287016110b2565b9350506020611194868287016110b2565b92505060406111a586828701610f83565b9150509250925092565b5f60ff82169050919050565b6111c4816111af565b82525050565b5f6020820190506111dd5f8301846111bb565b92915050565b5f6060820190506111f65f830186611137565b81810360208301526112088185611014565b90506112176040830184611137565b949350505050565b5f6020828403121561123457611233610f60565b5b5f611241848285016110b2565b91505092915050565b5f80604083850312156112605761125f610f60565b5b5f61126d858286016110b2565b925050602061127e858286016110b2565b9150509250929050565b7f416c726561647920766f746564000000000000000000000000000000000000005f82015250565b5f6112bc600d83610fcc565b91506112c782611288565b602082019050919050565b5f6020820190508181035f8301526112e9816112b0565b9050919050565b7f496e76616c69642063616e6469646174652049440000000000000000000000005f82015250565b5f611324601483610fcc565b915061132f826112f0565b602082019050919050565b5f6020820190508181035f83015261135181611318565b9050919050565b7f4e487b71000000000000000000000000000000000000000000000000000000005f52601160045260245ffd5b5f61138f82610f64565b91507fffffffffffffffffffffffffffffffffffffffffffffffffffffffffffffffff82036113c1576113c0611358565b5b600182019050919050565b5f8160011c9050919050565b5f808291508390505b6001851115611421578086048111156113fd576113fc611358565b5b600185161561140c5780820291505b808102905061141a856113cc565b94506113e1565b94509492505050565b5f8261143957600190506114f4565b81611446575f90506114f4565b816001811461145c576002811461146657611495565b60019150506114f4565b60ff84111561147857611477611358565b5b8360020a91508482111561148f5761148e611358565b5b506114f4565b5060208310610133831016604e8410600b84101617156114ca5782820a9050838111156114c5576114c4611358565b5b6114f4565b6114d784848460016113d8565b925090508184048111156114ee576114ed611358565b5b81810290505b9392505050565b5f61150582610f64565b9150611510836111af565b925061153d7fffffffffffffffffffffffffffffffffffffffffffffffffffffffffffffffff848461142a565b905092915050565b5f61154f82610f64565b915061155a83610f64565b925082820261156881610f64565b9150828204841483151761157f5761157e611358565b5b5092915050565b7f4e487b71000000000000000000000000000000000000000000000000000000005f52602260045260245ffd5b5f60028204905060018216806115ca57607f821691505b6020821081036115dd576115dc611586565b5b50919050565b6115ec8161108b565b82525050565b5f6020820190506116055f8301846115e3565b92915050565b5f60608201905061161e5f8301866115e3565b61162b6020830185611137565b6116386040830184611137565b949350505050565b5f61164a82610f64565b915061165583610f64565b925082820190508082111561166d5761166c611358565b5b9291505056fea2646970667358221220eae480cc66aa5ebca8d938ce9f33acecc93bb50af8eb786cf62e26d3cdf508fb64736f6c63430008140033",
  "immutableReferences": {},
  "source": "// SPDX-License-Identifier: MIT\r\npragma solidity ^0.8.0;\r\n\r\nimport \"@openzeppelin/contracts/token/ERC20/ERC20.sol\";\r\nimport \"@openzeppelin/contracts/token/ERC20/extensions/ERC20Burnable.sol\";\r\n\r\n\r\ncontract VotingToken is ERC20, ERC20Burnable {\r\n\r\n    struct Candidate {\r\n        uint256 id;\r\n        string name;\r\n        uint256 voteCount;\r\n    }\r\n\r\n    mapping(address => bool) public voters;\r\n    mapping(uint256 => Candidate) public candidates;\r\n    uint256 public candidatesCount;\r\n\r\n    constructor() ERC20(\"VotingToken\", \"VTK\") {\r\n        _mint(msg.sender, 1000000 * (10 ** decimals())); // Mint initial tokens for the contract deployer\r\n        addCandidate(\"Candidate 1\");\r\n        addCandidate(\"Candidate 2\");\r\n    }\r\n\r\n    function addCandidate(string memory name) private {\r\n        candidatesCount++;\r\n        candidates[candidatesCount] = Candidate(candidatesCount, name, 0);\r\n    }\r\n\r\n    function vote(uint256 candidateId) public {\r\n        require(!voters[msg.sender], \"Already voted\");\r\n        require(candidateId > 0 && candidateId <= candidatesCount, \"Invalid candidate ID\");\r\n\r\n        voters[msg.sender] = true;\r\n        candidates[candidateId].voteCount++;\r\n\r\n        // Transfer 1 token to the contract for each vote\r\n        _transfer(msg.sender, address(this), 1 * (10 ** decimals()));\r\n    }\r\n\r\n    function getVotes(uint256 candidateId) public view returns (uint256) {\r\n        require(candidateId > 0 && candidateId <= candidatesCount, \"Invalid candidate ID\");\r\n        return candidates[candidateId].voteCount;\r\n    }\r\n\r\n    function getWinner() public view returns (uint256) {\r\n        uint256 winningVoteCount = 0;\r\n        uint256 winningCandidate = 0;\r\n        for (uint256 i = 1; i <= candidatesCount; i++) {\r\n            if (candidates[i].voteCount > winningVoteCount) {\r\n                winningVoteCount = candidates[i].voteCount;\r\n                winningCandidate = i;\r\n            }\r\n        }\r\n        return winningCandidate;\r\n    }\r\n}\r\n",
  "sourcePath": "C:\\Proyectos\\Web3\\Front\\web3-nextjs-react-tailwind\\contracts\\Voting.sol",
  "compiler": {
    "name": "solc",
    "version": "0.8.20+commit.a1b79de6.Emscripten.clang"
  },
  "schemaVersion": "3.4.16",
  "updatedAt": "2024-07-12T05:32:18.006Z",
  "devdoc": {
    "errors": {
      "ERC20InsufficientAllowance(address,uint256,uint256)": [
        {
          "details": "Indicates a failure with the `spender`s `allowance`. Used in transfers.",
          "params": {
            "allowance": "Amount of tokens a `spender` is allowed to operate with.",
            "needed": "Minimum amount required to perform a transfer.",
            "spender": "Address that may be allowed to operate on tokens without being their owner."
          }
        }
      ],
      "ERC20InsufficientBalance(address,uint256,uint256)": [
        {
          "details": "Indicates an error related to the current `balance` of a `sender`. Used in transfers.",
          "params": {
            "balance": "Current balance for the interacting account.",
            "needed": "Minimum amount required to perform a transfer.",
            "sender": "Address whose tokens are being transferred."
          }
        }
      ],
      "ERC20InvalidApprover(address)": [
        {
          "details": "Indicates a failure with the `approver` of a token to be approved. Used in approvals.",
          "params": {
            "approver": "Address initiating an approval operation."
          }
        }
      ],
      "ERC20InvalidReceiver(address)": [
        {
          "details": "Indicates a failure with the token `receiver`. Used in transfers.",
          "params": {
            "receiver": "Address to which tokens are being transferred."
          }
        }
      ],
      "ERC20InvalidSender(address)": [
        {
          "details": "Indicates a failure with the token `sender`. Used in transfers.",
          "params": {
            "sender": "Address whose tokens are being transferred."
          }
        }
      ],
      "ERC20InvalidSpender(address)": [
        {
          "details": "Indicates a failure with the `spender` to be approved. Used in approvals.",
          "params": {
            "spender": "Address that may be allowed to operate on tokens without being their owner."
          }
        }
      ]
    },
    "events": {
      "Approval(address,address,uint256)": {
        "details": "Emitted when the allowance of a `spender` for an `owner` is set by a call to {approve}. `value` is the new allowance."
      },
      "Transfer(address,address,uint256)": {
        "details": "Emitted when `value` tokens are moved from one account (`from`) to another (`to`). Note that `value` may be zero."
      }
    },
    "kind": "dev",
    "methods": {
      "allowance(address,address)": {
        "details": "See {IERC20-allowance}."
      },
      "approve(address,uint256)": {
        "details": "See {IERC20-approve}. NOTE: If `value` is the maximum `uint256`, the allowance is not updated on `transferFrom`. This is semantically equivalent to an infinite approval. Requirements: - `spender` cannot be the zero address."
      },
      "balanceOf(address)": {
        "details": "See {IERC20-balanceOf}."
      },
      "burn(uint256)": {
        "details": "Destroys a `value` amount of tokens from the caller. See {ERC20-_burn}."
      },
      "burnFrom(address,uint256)": {
        "details": "Destroys a `value` amount of tokens from `account`, deducting from the caller's allowance. See {ERC20-_burn} and {ERC20-allowance}. Requirements: - the caller must have allowance for ``accounts``'s tokens of at least `value`."
      },
      "decimals()": {
        "details": "Returns the number of decimals used to get its user representation. For example, if `decimals` equals `2`, a balance of `505` tokens should be displayed to a user as `5.05` (`505 / 10 ** 2`). Tokens usually opt for a value of 18, imitating the relationship between Ether and Wei. This is the default value returned by this function, unless it's overridden. NOTE: This information is only used for _display_ purposes: it in no way affects any of the arithmetic of the contract, including {IERC20-balanceOf} and {IERC20-transfer}."
      },
      "name()": {
        "details": "Returns the name of the token."
      },
      "symbol()": {
        "details": "Returns the symbol of the token, usually a shorter version of the name."
      },
      "totalSupply()": {
        "details": "See {IERC20-totalSupply}."
      },
      "transfer(address,uint256)": {
        "details": "See {IERC20-transfer}. Requirements: - `to` cannot be the zero address. - the caller must have a balance of at least `value`."
      },
      "transferFrom(address,address,uint256)": {
        "details": "See {IERC20-transferFrom}. Emits an {Approval} event indicating the updated allowance. This is not required by the EIP. See the note at the beginning of {ERC20}. NOTE: Does not update the allowance if the current allowance is the maximum `uint256`. Requirements: - `from` and `to` cannot be the zero address. - `from` must have a balance of at least `value`. - the caller must have allowance for ``from``'s tokens of at least `value`."
      }
    },
    "version": 1
  },
  "userdoc": {
    "kind": "user",
    "methods": {},
    "version": 1
  }
}